:100000000C943E000C9448000C9448000C9448005A
:100010000C9448000C9448000C9448000C94480040
:100020000C9448000C9448000C9448000C94480030
:100030000C9448000C9448000C9448000C94480020
:100040000C9448000C9448000C9448000C94480010
:100050000C9448000C9448000C9448000C94480000
:100060000C9448000C9448000C9448000C944800F0
:100070000C9448000C9448000C94480011241FBEB6
:10008000CFEFD4E0DEBFCDBF0E944A000C94360310
:100090000C940000CF93DF93CDB7DEB760970FB617
:1000A000F894DEBF0FBECDBF84B1896084B985B13D
:1000B000896085B9FE01319680E1DF011D928A9544
:1000C000E9F70E94D9028BE990E00E941F0361E0EA
:1000D00084E50E94B30261E082E70E94B30261E01E
:1000E00081E60E94B30261E08EE60E94B30261E005
:1000F00083E70E94B30261E08DE60E94B30261E0F3
:1001000089E60E94B30261E084E70E94B30261E0E5
:1001100084E70E94B30261E085E60E94B30261E0D9
:1001200082E70E94B30261E08AE30E94B30248E0E2
:1001300064E080E00E94080361E084E40E94B3026E
:1001400061E081E60E94B30261E084E70E94B302AD
:1001500061E081E60E94B30261E08AE30E94B3029B
:1001600042E064E080E00E940803F12C00E010E02F
:10017000812C912CAA24A394B12CD82CC92CE12E2B
:1001800015C10E942E038138E1F70E942E03898356
:100190000E942E038A830E942E038B830E942E03CB
:1001A0008C830E942E038D830E942E038E830E94D7
:1001B0002E038F830E942E0388870E942E03898737
:1001C0000E942E038A870E942E038B870E942E0393
:1001D0008C870E942E038D870E942E038E870E949B
:1001E0002E038F870E942E03888BDE011196F40167
:1001F00027C0CB01022E02C0959587950A94E2F79D
:1002000080FD7394CA01022E02C0959587950A94C9
:10021000E2F780FD63942F5F3F4F2830310549F7A7
:10022000761450F0671440F4C5010E2E02C0880FFA
:10023000991F0A94E2F7082B3196E830F10551F046
:100240004D91642F70E0409550E02D2D3C2D6E2C8B
:100250007E2CCFCFBE01675F7F4FC40127C0AD01A9
:10026000022E02C0559547950A94E2F740FD73941B
:10027000AF01022E02C0559547950A94E2F740FD62
:1002800063942F5F3F4F2830310549F7761450F0C3
:10029000671440F49501082E02C0220F331F0A9400
:1002A000E2F7F22A01968830910561F0DB01ED91C9
:1002B000BD01AE2FB0E0E095F0E02D2D3C2D6E2C71
:1002C0007E2CCDCF013849F5BFE2BF1508F04EC0F6
:1002D00089E38F1508F44AC061E08F2D0E94B302B4
:1002E0004EE0612F812F0E94080361E080E30E94AD
:1002F000B30261E088E70E94B30261E088E30E94F4
:10030000B30261E081E30E94B30249E064E0812F1F
:100310000E940803F12E012F49C00E3739F5AFE2D4
:10032000AF1520F5B9E3BF1508F161E08F2D0E94EC
:10033000B3024EE0612F812F0E94080361E080E349
:100340000E94B30261E088E70E94B30261E087E3A4
:100350000E94B30261E085E40E94B30249E064E0D8
:10036000812F0E940803F12E012F20C061E081E25D
:100370000E94B3024EE0612F812F0E94080361E0CA
:1003800081E20E94B30261E080E20E94B30261E078
:1003900080E20E94B30261E080E20E94B30249E081
:1003A00064E0812F0E940803F12E012F1A99E9CEF3
:1003B00078C00E942E038138E1F70E942E03082F97
:1003C0000E942E03F82E013839F58FE28F1508F0C0
:1003D0004AC0A9E3AF1508F446C061E08F2D0E9422
:1003E000B3024EE0612F812F0E94080361E080E399
:1003F0000E94B30261E088E70E94B30261E088E3F3
:100400000E94B30261E081E30E94B30249E064E02C
:10041000812F0E94080345C00E3729F5BFE2B817A7
:1004200010F589E38F15F8F061E08F2D0E94B3027B
:100430004EE0612F812F0E94080361E080E30E945B
:10044000B30261E088E70E94B30261E087E30E94A3
:10045000B30261E085E40E94B30249E064E0812FC9
:100460000E9408031EC061E081E20E94B3024EE0D8
:10047000612F812F0E94080361E081E20E94B30294
:1004800061E080E20E94B30261E080E20E94B30278
:1004900061E080E20E94B30249E064E0812F0E94A3
:1004A0000803199986CF82CF1092B9008AE280930F
:1004B000B800089594EA9093BC0098B1936098B9FD
:1004C000ECEBF0E090819923ECF79091B900987FE4
:1004D000983011F09031A1F48093BB0084E88093B0
:1004E000BC00ECEBF0E080818823ECF79091B90040
:1004F000987F983139F081E0903429F480E00895B4
:1005000081E0089580E0089584E98093BC00ECEBDD
:10051000F0E0808184FDFDCF08958093BB0084E8E6
:100520008093BC00ECEBF0E080818823ECF79091A5
:10053000B900987F81E0983209F480E00895CF9364
:10054000C62FC82B8C2F8C600E948D0281E08A956B
:10055000F1F78C2F837F88600E948D0280E18A955D
:10056000F1F7CF9108951F93CF93DF93C82F162FE4
:100570008EE40E945A02DC2FD07F8D2F812B886061
:100580000E948D02612F8D2F0E949F0280E1C89FE3
:10059000E0011124CE018860812B0E948D02612F21
:1005A0008C2F0E949F020E948402DF91CF911F91A5
:1005B0000895CF930E94540260E083E00E94B3024A
:1005C00082EE94E00197F1F760E083E00E94B302CD
:1005D000C2E38C2F8A95F1F760E083E00E94B302BA
:1005E000CA95F1F760E082E00E94B30260E088E221
:1005F0000E94B30260E088E00E94B30260E081E004
:100600000E94B30260E08CE00E94B302CF91089593
:100610001F93CF93DF93C42F442369F0182F1061E9
:10062000162BD0E160E0812F0E94B3029D2F9A9596
:10063000F1F7C150B9F7DF91CF911F910895292F9C
:10064000332727FD3A952093C5008093C40080E1AD
:100650008093C10086E08093C2000895E0ECF0E052
:1006600080818823ECF78091C6000895F894FFCF2D
:00000001FF
