S019000045453334385F5472616E736D69747465722E73726563E6
S113000012C017C016C015C014C013C012C011C04E
S113001010C00FC00EC00DC00CC00BC00AC009C078
S113002008C007C006C011241FBECFEDCDBF85D0C8
S1130030C3C0E6CFCF93DF93C82FD62F8AEAB8D0B8
S11300408AEAB6D08C2FB4D08C2FB2D08D2FB0D0FA
S1130050DF91CF9108951F93CF93DF93CDB7DD2721
S1130060C051CDBF182FFE01319680E1DF011D92F2
S11300708A95E9F720E030E0A12FB0E09FEFAD01D1
S1130080022E02C0559547950A94E2F7842F817099
S113009040FD02C0108203C0813009F490832F5FB9
S11300A03F4F31962830310551F7FE01399620E053
S11300B030E070E09FEFAB01022E02C055954795EA
S11300C00A94E2F7842F817040FD02C0108203C0BD
S11300D0813009F490832F5F3F4F319628303105EA
S11300E051F78AEA65D08AEA63D0812F61D0898189
S11300F05FD08A815DD08B815BD08C8159D08D811A
S113010057D08E8155D08F8153D0888551D0898521
S11301104FD08A854DD08B854BD08C8549D08D8529
S113012047D08E8545D08F8543D0888941D0C05F24
S1130130CDBFDF91CF911F91089581B3866281BBBA
S113014082B3856282BB8BE990E027D010C0C0E304
S11301506C2F81E880DF2FE986E891E02150804010
S11301609040E1F700C00000CF5FCA3389F784995B
S1130170EECF10C0C0E36C2F81E85CDF2FE986E886
S113018091E0215080409040E1F700C00000CF5F33
S1130190CA3389F78399EECFEACF292F332727FD76
S11301A03A9522B989B988E08AB986E083B9089575
S10F01B05D9BFECF8CB90895F894FFCF3E
S9030000FC
